{
  "contractName": "Registration",
  "abi": [
    {
      "inputs": [
        {
          "internalType": "string",
          "name": "_lastName",
          "type": "string"
        }
      ],
      "name": "register",
      "outputs": [],
      "stateMutability": "nonpayable",
      "type": "function"
    },
    {
      "inputs": [],
      "name": "getCandidates",
      "outputs": [
        {
          "components": [
            {
              "internalType": "string",
              "name": "_lastName",
              "type": "string"
            },
            {
              "internalType": "address",
              "name": "_address",
              "type": "address"
            }
          ],
          "internalType": "struct Registration.candidateDetails[]",
          "name": "",
          "type": "tuple[]"
        }
      ],
      "stateMutability": "view",
      "type": "function"
    }
  ],
  "bytecode": "0x608060405234801561001057600080fd5b50610878806100206000396000f3fe608060405234801561001057600080fd5b50600436106100365760003560e01c806306a49fce1461003b578063f2c298be14610059575b600080fd5b610043610075565b6040516100509190610624565b60405180910390f35b610073600480360381019061006e919061046f565b6101bc565b005b60606001805480602002602001604051908101604052809291908181526020016000905b828210156101b357838290600052602060002090600202016040518060400160405290816000820180546100cc906107a1565b80601f01602080910402602001604051908101604052809291908181526020018280546100f8906107a1565b80156101455780601f1061011a57610100808354040283529160200191610145565b820191906000526020600020905b81548152906001019060200180831161012857829003601f168201915b505050505081526020016001820160009054906101000a900473ffffffffffffffffffffffffffffffffffffffff1673ffffffffffffffffffffffffffffffffffffffff1673ffffffffffffffffffffffffffffffffffffffff168152505081526020019060010190610099565b50505050905090565b600015156000803373ffffffffffffffffffffffffffffffffffffffff1673ffffffffffffffffffffffffffffffffffffffff16815260200190815260200160002060009054906101000a900460ff1615151461024e576040517f08c379a000000000000000000000000000000000000000000000000000000000815260040161024590610646565b60405180910390fd5b600160405180604001604052808381526020013373ffffffffffffffffffffffffffffffffffffffff16815250908060018154018082558091505060019003906000526020600020906002020160009091909190915060008201518160000190805190602001906102c0929190610364565b5060208201518160010160006101000a81548173ffffffffffffffffffffffffffffffffffffffff021916908373ffffffffffffffffffffffffffffffffffffffff160217905550505060016000803373ffffffffffffffffffffffffffffffffffffffff1673ffffffffffffffffffffffffffffffffffffffff16815260200190815260200160002060006101000a81548160ff02191690831515021790555050565b828054610370906107a1565b90600052602060002090601f01602090048101928261039257600085556103d9565b82601f106103ab57805160ff19168380011785556103d9565b828001600101855582156103d9579182015b828111156103d85782518255916020019190600101906103bd565b5b5090506103e691906103ea565b5090565b5b808211156104035760008160009055506001016103eb565b5090565b600061041a61041584610697565b610666565b90508281526020810184848401111561043257600080fd5b61043d84828561075f565b509392505050565b600082601f83011261045657600080fd5b8135610466848260208601610407565b91505092915050565b60006020828403121561048157600080fd5b600082013567ffffffffffffffff81111561049b57600080fd5b6104a784828501610445565b91505092915050565b60006104bc83836105e7565b905092915050565b6104cd8161072d565b82525050565b60006104de826106d7565b6104e881856106fa565b9350836020820285016104fa856106c7565b8060005b85811015610536578484038952815161051785826104b0565b9450610522836106ed565b925060208a019950506001810190506104fe565b50829750879550505050505092915050565b6000610553826106e2565b61055d818561070b565b935061056d81856020860161076e565b61057681610831565b840191505092915050565b600061058e60228361071c565b91507f596f7572206163636f756e7420697320616c726561647920726567697374657260008301527f65640000000000000000000000000000000000000000000000000000000000006020830152604082019050919050565b600060408301600083015184820360008601526106048282610548565b915050602083015161061960208601826104c4565b508091505092915050565b6000602082019050818103600083015261063e81846104d3565b905092915050565b6000602082019050818103600083015261065f81610581565b9050919050565b6000604051905081810181811067ffffffffffffffff8211171561068d5761068c610802565b5b8060405250919050565b600067ffffffffffffffff8211156106b2576106b1610802565b5b601f19601f8301169050602081019050919050565b6000819050602082019050919050565b600081519050919050565b600081519050919050565b6000602082019050919050565b600082825260208201905092915050565b600082825260208201905092915050565b600082825260208201905092915050565b60006107388261073f565b9050919050565b600073ffffffffffffffffffffffffffffffffffffffff82169050919050565b82818337600083830152505050565b60005b8381101561078c578082015181840152602081019050610771565b8381111561079b576000848401525b50505050565b600060028204905060018216806107b957607f821691505b602082108114156107cd576107cc6107d3565b5b50919050565b7f4e487b7100000000000000000000000000000000000000000000000000000000600052602260045260246000fd5b7f4e487b7100000000000000000000000000000000000000000000000000000000600052604160045260246000fd5b6000601f19601f830116905091905056fea264697066735822122087dd0194c95f96dba23cd99fea8cbed3b9d2dfefcc70da8b35865dba752ac22f64736f6c63430008000033",
  "immutableReferences": {},
  "source": "// candidates should register before they can be voted\r\npragma solidity ^0.8.0;\r\n\r\ncontract Registration {\r\n    \r\n    //mapping to determine whether the account is eligible or not\r\n    mapping(address => bool) isCandidate;\r\n    \r\n    struct candidateDetails {\r\n        string _lastName;\r\n        address _address;\r\n    }\r\n    \r\n    candidateDetails[] candidates;\r\n    \r\n    //candidate register himself by filling his name\r\n    function register(string memory _lastName) public {\r\n        require(isCandidate[msg.sender] == false, \"Your account is already registered\");\r\n        candidates.push(candidateDetails(_lastName, msg.sender));\r\n        isCandidate[msg.sender] = true;\r\n    }\r\n    \r\n    // read function to see the list of candidates\r\n    function getCandidates() external view returns(candidateDetails[] memory) {\r\n        return candidates;\r\n    }\r\n    \r\n}",
  "sourcePath": "C:\\Ethereum_DAPPs\\DAPP_Voting\\contracts\\Registration.sol",
  "compiler": {
    "name": "solc",
    "version": "0.8.0+commit.c7dfd78e.Emscripten.clang"
  },
  "schemaVersion": "3.3.2",
  "updatedAt": "2021-01-20T18:42:03.249Z",
  "devdoc": {
    "kind": "dev",
    "methods": {},
    "version": 1
  },
  "userdoc": {
    "kind": "user",
    "methods": {},
    "version": 1
  }
}