{
  "contractName": "Voting",
  "abi": [
    {
      "inputs": [
        {
          "internalType": "address",
          "name": "",
          "type": "address"
        }
      ],
      "name": "alreadyVoted",
      "outputs": [
        {
          "internalType": "bool",
          "name": "",
          "type": "bool"
        }
      ],
      "stateMutability": "view",
      "type": "function",
      "constant": true
    },
    {
      "inputs": [],
      "name": "getCandidates",
      "outputs": [
        {
          "components": [
            {
              "internalType": "string",
              "name": "_lastName",
              "type": "string"
            },
            {
              "internalType": "address",
              "name": "_address",
              "type": "address"
            }
          ],
          "internalType": "struct Registration.candidateDetails[]",
          "name": "",
          "type": "tuple[]"
        }
      ],
      "stateMutability": "view",
      "type": "function",
      "constant": true
    },
    {
      "inputs": [
        {
          "internalType": "string",
          "name": "_lastName",
          "type": "string"
        }
      ],
      "name": "register",
      "outputs": [],
      "stateMutability": "nonpayable",
      "type": "function"
    },
    {
      "inputs": [],
      "name": "totalVote",
      "outputs": [
        {
          "internalType": "uint256",
          "name": "",
          "type": "uint256"
        }
      ],
      "stateMutability": "view",
      "type": "function",
      "constant": true
    },
    {
      "inputs": [
        {
          "internalType": "address",
          "name": "",
          "type": "address"
        }
      ],
      "name": "voteCount",
      "outputs": [
        {
          "internalType": "uint256",
          "name": "",
          "type": "uint256"
        }
      ],
      "stateMutability": "view",
      "type": "function",
      "constant": true
    },
    {
      "inputs": [
        {
          "internalType": "address",
          "name": "_address",
          "type": "address"
        }
      ],
      "name": "vote",
      "outputs": [],
      "stateMutability": "nonpayable",
      "type": "function"
    },
    {
      "inputs": [],
      "name": "getPickWinner",
      "outputs": [
        {
          "internalType": "string",
          "name": "",
          "type": "string"
        }
      ],
      "stateMutability": "view",
      "type": "function",
      "constant": true
    }
  ],
  "bytecode": "0x6080604052600060025534801561001557600080fd5b506110ab806100256000396000f3fe608060405234801561001057600080fd5b506004361061007d5760003560e01c80635e3cd7bc1161005b5780635e3cd7bc146100ee5780636dd7d8ea1461011e578063f1cea4c71461013a578063f2c298be146101585761007d565b806306a49fce1461008257806306d2ad40146100a05780632e670bc8146100d0575b600080fd5b61008a610174565b6040516100979190610d1a565b60405180910390f35b6100ba60048036038101906100b59190610a19565b6102bb565b6040516100c79190610d3c565b60405180910390f35b6100d86102db565b6040516100e59190610d57565b60405180910390f35b61010860048036038101906101039190610a19565b610546565b6040516101159190610dd9565b60405180910390f35b61013860048036038101906101339190610a19565b61055e565b005b61014261074b565b60405161014f9190610dd9565b60405180910390f35b610172600480360381019061016d9190610a42565b610751565b005b60606001805480602002602001604051908101604052809291908181526020016000905b828210156102b257838290600052602060002090600202016040518060400160405290816000820180546101cb90610f45565b80601f01602080910402602001604051908101604052809291908181526020018280546101f790610f45565b80156102445780601f1061021957610100808354040283529160200191610244565b820191906000526020600020905b81548152906001019060200180831161022757829003601f168201915b505050505081526020016001820160009054906101000a900473ffffffffffffffffffffffffffffffffffffffff1673ffffffffffffffffffffffffffffffffffffffff1673ffffffffffffffffffffffffffffffffffffffff168152505081526020019060010190610198565b50505050905090565b60046020528060005260406000206000915054906101000a900460ff1681565b60606000806060600091505b60018054905082101561053d57826003600060018581548110610333577f4e487b7100000000000000000000000000000000000000000000000000000000600052603260045260246000fd5b906000526020600020906002020160010160009054906101000a900473ffffffffffffffffffffffffffffffffffffffff1673ffffffffffffffffffffffffffffffffffffffff1673ffffffffffffffffffffffffffffffffffffffff16815260200190815260200160002054111561052a5760036000600184815481106103e4577f4e487b7100000000000000000000000000000000000000000000000000000000600052603260045260246000fd5b906000526020600020906002020160010160009054906101000a900473ffffffffffffffffffffffffffffffffffffffff1673ffffffffffffffffffffffffffffffffffffffff1673ffffffffffffffffffffffffffffffffffffffff1681526020019081526020016000205492506001828154811061048d577f4e487b7100000000000000000000000000000000000000000000000000000000600052603260045260246000fd5b906000526020600020906002020160000180546104a990610f45565b80601f01602080910402602001604051908101604052809291908181526020018280546104d590610f45565b80156105225780601f106104f757610100808354040283529160200191610522565b820191906000526020600020905b81548152906001019060200180831161050557829003601f168201915b505050505090505b818061053590610f77565b9250506102e7565b80935050505090565b60036020528060005260406000206000915090505481565b60001515600460003373ffffffffffffffffffffffffffffffffffffffff1673ffffffffffffffffffffffffffffffffffffffff16815260200190815260200160002060009054906101000a900460ff161515146105f1576040517f08c379a00000000000000000000000000000000000000000000000000000000081526004016105e890610d79565b60405180910390fd5b600115156000808373ffffffffffffffffffffffffffffffffffffffff1673ffffffffffffffffffffffffffffffffffffffff16815260200190815260200160002060009054906101000a900460ff16151514610683576040517f08c379a000000000000000000000000000000000000000000000000000000000815260040161067a90610d99565b60405180910390fd5b600360008273ffffffffffffffffffffffffffffffffffffffff1673ffffffffffffffffffffffffffffffffffffffff16815260200190815260200160002060008154809291906106d390610f77565b9190505550600260008154809291906106eb90610f77565b91905055506001600460003373ffffffffffffffffffffffffffffffffffffffff1673ffffffffffffffffffffffffffffffffffffffff16815260200190815260200160002060006101000a81548160ff02191690831515021790555050565b60025481565b600015156000803373ffffffffffffffffffffffffffffffffffffffff1673ffffffffffffffffffffffffffffffffffffffff16815260200190815260200160002060009054906101000a900460ff161515146107e3576040517f08c379a00000000000000000000000000000000000000000000000000000000081526004016107da90610db9565b60405180910390fd5b600160405180604001604052808381526020013373ffffffffffffffffffffffffffffffffffffffff16815250908060018154018082558091505060019003906000526020600020906002020160009091909190915060008201518160000190805190602001906108559291906108f9565b5060208201518160010160006101000a81548173ffffffffffffffffffffffffffffffffffffffff021916908373ffffffffffffffffffffffffffffffffffffffff160217905550505060016000803373ffffffffffffffffffffffffffffffffffffffff1673ffffffffffffffffffffffffffffffffffffffff16815260200190815260200160002060006101000a81548160ff02191690831515021790555050565b82805461090590610f45565b90600052602060002090601f016020900481019282610927576000855561096e565b82601f1061094057805160ff191683800117855561096e565b8280016001018555821561096e579182015b8281111561096d578251825591602001919060010190610952565b5b50905061097b919061097f565b5090565b5b80821115610998576000816000905550600101610980565b5090565b60006109af6109aa84610e25565b610df4565b9050828152602081018484840111156109c757600080fd5b6109d2848285610f03565b509392505050565b6000813590506109e98161105e565b92915050565b600082601f830112610a0057600080fd5b8135610a1084826020860161099c565b91505092915050565b600060208284031215610a2b57600080fd5b6000610a39848285016109da565b91505092915050565b600060208284031215610a5457600080fd5b600082013567ffffffffffffffff811115610a6e57600080fd5b610a7a848285016109ef565b91505092915050565b6000610a8f8383610cce565b905092915050565b610aa081610ebb565b82525050565b6000610ab182610e65565b610abb8185610e88565b935083602082028501610acd85610e55565b8060005b85811015610b095784840389528151610aea8582610a83565b9450610af583610e7b565b925060208a01995050600181019050610ad1565b50829750879550505050505092915050565b610b2481610ecd565b82525050565b6000610b3582610e70565b610b3f8185610e99565b9350610b4f818560208601610f12565b610b588161104d565b840191505092915050565b6000610b6e82610e70565b610b788185610eaa565b9350610b88818560208601610f12565b610b918161104d565b840191505092915050565b6000610ba9602183610eaa565b91507f596f7520617265206e6f7420616c6c6f77656420746f20766f7465207477696360008301527f65000000000000000000000000000000000000000000000000000000000000006020830152604082019050919050565b6000610c0f603383610eaa565b91507f54686973206163636f756e74206973206e6f742072656769737465726564206160008301527f6d6f6e67207468652063616e64696461746573000000000000000000000000006020830152604082019050919050565b6000610c75602283610eaa565b91507f596f7572206163636f756e7420697320616c726561647920726567697374657260008301527f65640000000000000000000000000000000000000000000000000000000000006020830152604082019050919050565b60006040830160008301518482036000860152610ceb8282610b2a565b9150506020830151610d006020860182610a97565b508091505092915050565b610d1481610ef9565b82525050565b60006020820190508181036000830152610d348184610aa6565b905092915050565b6000602082019050610d516000830184610b1b565b92915050565b60006020820190508181036000830152610d718184610b63565b905092915050565b60006020820190508181036000830152610d9281610b9c565b9050919050565b60006020820190508181036000830152610db281610c02565b9050919050565b60006020820190508181036000830152610dd281610c68565b9050919050565b6000602082019050610dee6000830184610d0b565b92915050565b6000604051905081810181811067ffffffffffffffff82111715610e1b57610e1a61101e565b5b8060405250919050565b600067ffffffffffffffff821115610e4057610e3f61101e565b5b601f19601f8301169050602081019050919050565b6000819050602082019050919050565b600081519050919050565b600081519050919050565b6000602082019050919050565b600082825260208201905092915050565b600082825260208201905092915050565b600082825260208201905092915050565b6000610ec682610ed9565b9050919050565b60008115159050919050565b600073ffffffffffffffffffffffffffffffffffffffff82169050919050565b6000819050919050565b82818337600083830152505050565b60005b83811015610f30578082015181840152602081019050610f15565b83811115610f3f576000848401525b50505050565b60006002820490506001821680610f5d57607f821691505b60208210811415610f7157610f70610fef565b5b50919050565b6000610f8282610ef9565b91507fffffffffffffffffffffffffffffffffffffffffffffffffffffffffffffffff821415610fb557610fb4610fc0565b5b600182019050919050565b7f4e487b7100000000000000000000000000000000000000000000000000000000600052601160045260246000fd5b7f4e487b7100000000000000000000000000000000000000000000000000000000600052602260045260246000fd5b7f4e487b7100000000000000000000000000000000000000000000000000000000600052604160045260246000fd5b6000601f19601f8301169050919050565b61106781610ebb565b811461107257600080fd5b5056fea2646970667358221220ddfb69a1aee5d26c155b2c53338d5f0eae74defe69aae6fca6a84a929fadb96264736f6c63430008000033",
  "immutableReferences": {},
  "source": "pragma solidity ^0.8.0;\r\n\r\nimport \"./Registration.sol\";\r\n\r\ncontract Voting is Registration {\r\n    \r\n    uint public totalVote = 0;\r\n    // total count of vote for each address\r\n    mapping(address => uint) public voteCount;\r\n    \r\n    // to forbid double voting \r\n    mapping(address => bool) public alreadyVoted;\r\n    \r\n    //function to assign a vote to the selected address  \r\n    function vote(address _address) public {\r\n        require(alreadyVoted[msg.sender] == false, \"You are not allowed to vote twice\");\r\n        require(isCandidate[_address] == true, \"This account is not registered among the candidates\");\r\n        voteCount[_address] ++;\r\n        totalVote ++;\r\n        alreadyVoted[msg.sender] = true;\r\n    }\r\n    \r\n    function getPickWinner() public view returns(string memory){\r\n        uint256 largest = 0; \r\n        uint256 i;\r\n        string memory winner;\r\n\r\n        for(i = 0; i < candidates.length; i++){\r\n            if(voteCount[candidates[i]._address] > largest) {\r\n                largest = voteCount[candidates[i]._address];\r\n                winner = candidates[i]._lastName;\r\n            } \r\n        }\r\n        return winner;\r\n    }      \r\n    \r\n}",
  "sourcePath": "C:/Ethereum_DAPPs/DAPP_Voting/contracts/Voting.sol",
  "compiler": {
    "name": "solc",
    "version": "0.8.0+commit.c7dfd78e.Emscripten.clang"
  },
  "schemaVersion": "3.3.2",
  "updatedAt": "2021-01-20T18:42:20.377Z",
  "networkType": "ethereum",
  "devdoc": {
    "kind": "dev",
    "methods": {},
    "version": 1
  },
  "userdoc": {
    "kind": "user",
    "methods": {},
    "version": 1
  }
}